:1000000012C0189518951895189518951895189563
:100010001895189518951895189518951895189578
:100020001895189518958FE58DBFC0E4E8E34E2E1E
:1000300084E08EBFD4E0F4E05F2EEEEFF3E0A0E6C4
:10004000B0E0A89584B7082E877F84BF88E1992700
:1000500081BD91BD88278D933197E9F78DE489B9EA
:1000600080E080BD88E18AB966248FEF87BBB99AAA
:10007000BA9A81EA8FBD81E08EBD36D1A0E6B0E0AC
:100080008D9388278C93A0E6B0E0EEE4F3E04CD1AA
:1000900009F027C0C09880E090E090934B008093D7
:1000A0004A0080E090E09093490080934800C39814
:1000B000C498C59886E990E024D1C09880EF90E07C
:1000C00090934B0080934A0080EF90E0909349001A
:1000D00080934800C398C498C59882E390E011D1FA
:1000E00000C1A0E6B0E0E0E5F3E01ED109F027C0D2
:1000F000C09880E090E090934B0080934A0080E0AD
:1001000090E09093490080934800C398C498C598A4
:1001100086E990E0F6D0C09A8FE090E090934B0093
:1001200080934A008FE090E09093490080934800CC
:10013000C39AC498C59888E290E0E3D0D2C0A0E604
:10014000B0E0E2E5F3E0F0D009F027C0C09880E02D
:1001500090E090934B0080934A0080E090E0909371
:10016000490080934800C398C498C59886E990E0F8
:10017000C8D0C09A8FE090E090934B0080934A00E3
:1001800080EF90E09093490080934800C398C49812
:10019000C5988AE090E0B5D0A4C0A0E6B0E0E4E560
:1001A000F3E0C2D009F027C0C09880E090E09093BF
:1001B0004B0080934A0080E090E090934900809348
:1001C0004800C398C498C59886E990E09AD0C09832
:1001D00080EF90E090934B0080934A008FE090E096
:1001E0009093490080934800C39AC498C59888E2C8
:1001F00090E087D076C0A0E6B0E0E6E5F3E094D0EA
:1002000009F014C0C09880E090E090934B00809378
:100210004A0080E090E09093490080934800C398A2
:10022000C498C59888E290E06CD05BC0A0E6B0E0CE
:10023000E8E5F3E079D009F027C0C09880E090E0CD
:1002400090934B0080934A0080E090E090934900A7
:1002500080934800C398C498C59886E990E051D02F
:10026000C09880E090E090934B0080934A0080E03B
:1002700090E09093490080934800C398C49AC59831
:1002800088E290E03ED02DC0A0E6B0E0EAE5F3E0E1
:100290004BD009F026C0C09880E090E090934B00CE
:1002A00080934A0080E090E090934900809348005A
:1002B000C398C498C59886E990E023D0C09880E0A0
:1002C00090E090934B0080934A0080E090E0909300
:1002D000490080934800C398C498C59A88E290E08A
:1002E00010D0CBCEF894FFCF5F9BFECF8CB108959A
:1002F0003197F1F70895689462F80895E89462F8E8
:100300000895EF93FF93EE27E82BE92B31F0E8EB0C
:10031000FBE03197F1F70197D1F7FF91EF91089545
:10032000C895319600200895689401C0E894AF9371
:10033000BF938D9116F0919102C0F2DF902D891735
:1003400018F011F48823A9F7BF91AF9108954600E2
:0C03500042004C005200530050004400DA
:00000001FF
